S01000004669726D776172652E73726563D7
S11300000C9434000C9451000C9451000C94510045
S11300100C9451000C9451000C9451000C94510018
S11300200C9451000C9451000C9451000C94EB006E
S11300300C9451000C9451000C9451000C945100F8
S11300400C941F0A0C9451000C94330C0C94680CFF
S11300500C9451000C9451000C9451000C945100D8
S11300600C9451000C94510011241FBECFEFD8E022
S1130070DEBFCDBF11E0A0E0B1E0E0E5F9E102C0F0
S113008005900D92A630B107D9F723E0A6E0B1E0C0
S113009001C01D92AC35B207E1F70E9453000C94E5
S11300A0A60C0C9400003A9A89E08093810082E0C7
S11300B080936F0080E49FE190938900809388008F
S11300C08EE284B92A9A299A80E58CBD81E08DBD9F
S11300D061E084E00E94360A65E589E00E94360A00
S11300E065E58AE00E94360A65E58BE00E94360ADF
S11300F065E58CE00E94360A65E58DE00E94360ACB
S113010065E58EE00E94360A65E58FE00E94360AB6
S11301100E94060C0E946B0B0E94FC000E94500A75
S113012078948FE40E94C60B8BE40E94C60B0E9455
S113013001010E94130A81E00E941C0A08C00E9467
S113014086020E94FC0B811113C0809109018091E9
S113015009018823A1F30E94C00A809109018150FA
S1130160809309010E9486020E94FC0B882369F394
S11301700E94AA0BC82F909108019230F9F060F404
S11301809923C1F09130C1F40E947B0B91E0C03CF3
S113019099F090930801D9CF9330C9F0943061F469
S11301A0482F4F7060910601809107010E94A30BB4
S11301B091E0EFCF803C31F090E0EBCF80930701EA
S11301C093E0E7CF80EC0E947B0B92E0E2CF809338
S11301D0060194E0DECF1F920F920FB60F92112406
S11301E08F93809109018F5F809309018F910F9004
S11301F00FBE0F901F90189581E085BD80936E000F
S11302000895CF92DF92EF92FF920F931F93CF93B3
S1130210CAE088E00E94410A6C0180E10E94410A20
S11302207C0188E10E94410A8C0180E00E94410A1D
S113023020912A0130E0F901EE0FFF1FE35BFE4F2E
S1130240D182C0822F5F3F4F2770332720932A012A
S113025020914F013091500140914D0150914E0138
S1130260240F351F4091510150915201240F351F25
S11302704091530150915401240F351F4091550171
S113028050915601240F351F409157015091580148
S1130290240F351F4091590150915A01240F351FE5
S11302A040915B0150915C01240F351F36952795D1
S11302B03695279536952795F901F695E795F695A0
S11302C0E795F695E795E20FF31FF0933B01E09372
S11302D03A0120912B0130E0D901AA0FBB1FA35A88
S11302E0BE4FED92FC922F5F3F4F27703327209330
S11302F02B0120915F013091600140915D0150918B
S11303005E01240F351F4091610150916201240F59
S1130310351F4091630150916401240F351F4091B2
S1130320650150916601240F351F4091670150917A
S11303306801240F351F4091690150916A01240F0F
S1130340351F40916B0150916C01240F351F369578
S113035027953695279536952795B901769567950E
S11303607695679576956795620F731F70933D0137
S113037060933C0120912C0130E0D901AA0FBB1FEE
S1130380A359BE4F0D931C932F5F3F4F2770332704
S113039020932C0120916F013091700140916D01E7
S11303A050916E01240F351F4091710150917201DB
S11303B0240F351F4091730150917401240F351F90
S11303C04091750150917601240F351F40917701BA
S11303D050917801240F351F4091790150917A0191
S11303E0240F351F40917B0150917C01240F351F50
S11303F0369527953695279536952795A9015695CF
S113040047955695479556954795420F531F5093D8
S11304103F0140933E0120912D0130E0D901AA0F04
S1130420BB1FA358BE4F8D939C93C901019687703F
S1130430992780932D0180917F01909180012091D3
S11304407D0130917E01820F931F209181013091B3
S11304508201820F931F2091830130918401820FC6
S1130460931F2091850130918601820F931F209163
S1130470870130918801820F931F20918901309167
S11304808A01820F931F20918B0130918C01820F7E
S1130490931F9695879596958795969587959C0134
S11304A0369527953695279536952795280F391F24
S11304B03093410120934001C15009F0AACEEE0FC0
S11304C0FF1F3A96F0933301E0933201660F771FD2
S11304D0665F7F4F7093350160933401440F551F5D
S11304E0465F5F4F5093370140933601220F331F0D
S11304F0265F3F4F3093390120933801CF911F91EC
S11305000F91FF90EF90DF90CF9008958091460176
S1130510811101C0089588E00E94410A20910A01D6
S113052030910B014091120150911301421753076E
S1130530B8F58217930720F49C0184179507B8F146
S113054050930B0140930A0190931301809312017D
S113055040914201413009F4C7C108F4ABC14230B3
S113056041F540913A0150913B012417350708F0B9
S11305709CC280914701909148014B9720912201A0
S113058030912301821B930B419798F4809147018A
S113059090914801909323018093220181E00AC045
S11305A08217930768F29C014817590748F69A0185
S11305B0C7CF80E08093420180E10E94410A2091EC
S11305C00C0130910D014091140150911501421715
S11305D05307B8F58217930720F49C0184179507F5
S11305E0B8F150930D0140930C0190931501809341
S11305F0140140914301413009F4B9C108F49DC18B
S1130600423041F540913C0150913D01241735079A
S113061008F021C280914701909148014B972091A5
S1130620240130912501821B930B419798F480910A
S1130630470190914801909325018093240181E022
S11306400AC08217930768F29C014817590748F6B5
S11306509A01C7CF80E08093430188E10E94410A58
S113066020910E0130910F01409116015091170114
S113067042175307C0F58217930720F49C0184178F
S11306809507C0F150930F0140930E019093170109
S11306908093160140914401413009F49EC008F44E
S11306A080C0423049F5429A40913E0150913F0149
S11306B02417350708F0EFC1809147019091480154
S11306C04B972091260130912701821B930B419770
S11306D098F4809147019091480190932701809369
S11306E0260181E00AC08217930760F29C01481733
S11306F0590740F69A01C6CF80E08093440180E018
S11307000E94410A20911001309111014091180179
S11307105091190142175307B8F58217930720F433
S11307209C0184179507B8F150931101409310016F
S1130730909319018093180140914501413009F4C7
S113074090C008F474C0423041F54091400150918A
S113075041012417350708F05EC18091470190914B
S113076048014B972091280130912901821B930B5A
S1130770419798F480914701909148019093290101
S11307808093280181E00AC08217930768F29C01D4
S11307904817590748F69A01C7CF80E0809345016E
S11307A00895429A429880913601909137018217B8
S11307B0930708F092C21092200187E0809302010F
S11307C080914701909148019093270180932601DD
S11307D081E080931C0182E090CF429880913E0199
S11307E090913F018217930708F01FC140931C01A9
S11307F08091470190914801209126013091270171
S1130800821B930B869708F4F2C28091020188231D
S113081009F426C38150809302018091470190918D
S11308204801909327018093260182E066CF80914E
S11308303801909139018217930708F040C1109252
S1130840210187E080930301809147019091480141
S1130850909329018093280181E080931D0182E017
S11308609DCF80914001909141018217930708F038
S1130870FCC040931D018091470190914801209153
S1130880280130912901821B930B869708F49FC29B
S113089080910301882309F4C2C28150809303012B
S11308A080914701909148019093290180932801F8
S11308B082E074CF809132019091330182179307C3
S11308C008F0B1C110921E0187E08093000180916D
S11308D0470190914801909323018093220181E084
S11308E080931A0182E066CE80913A0190913B0197
S11308F08217930708F079C040931A018091470149
S1130900909148012091220130912301821B930B85
S1130910869708F44CC280910001882309F41AC414
S113092081508093000180914701909148019093F8
S113093023018093220182E03DCE80913401909185
S113094035018217930708F014C110921F0187E044
S11309508093010180914701909148019093250172
S11309608093240181E080931B0182E074CE809106
S11309703C0190913D018217930708F540931B01B8
S113098080914701909148012091240130912501E3
S1130990821B930B869708F4FAC180910101882386
S11309A009F4B7C38150809301018091470190916C
S11309B04801909325018093240182E04CCE2817AE
S11309C0390708F024C28091470190914801409171
S11309D0240150912501841B950B8F35910508F452
S11309E07EC410921B0180E036CE2817390708F028
S11309F012C2809147019091480140912201509187
S1130A002301841B950B8F35910508F4C4C3109200
S1130A101A0180E0CFCD809138019091390182177D
S1130A20930708F4DAC282E0B9CE2817390708F030
S1130A30F4C1809147019091480140912601509161
S1130A402701841B950B8F35910508F4F6C310928A
S1130A501C0180E052CE80913401909135018217BF
S1130A60930708F408C382E0F6CD2817390708F085
S1130A70D0C1809147019091480140912801509143
S1130A802901841B950B8F35910508F47AC41092C3
S1130A901D0180E083CE8091360190913701821749
S1130AA0930708F4FEC182E028CE80913201909130
S1130AB033018217930708F442C282E07BCD809110
S1130AC02D0190E0FC01EE0FFF1FE358FE4F318330
S1130AD0208301968770992780932D0180917F014F
S1130AE09091800120917D0130917E01820F931FAE
S1130AF02091810130918201820F931F2091830103
S1130B0030918401820F931F2091850130918601D9
S1130B10820F931F2091870130918801820F931FC8
S1130B202091890130918A01820F931F20918B01BA
S1130B3030918C01820F931F969587959695879592
S1130B40969587959C0136952795369527953695E4
S1130B502795280F391F3093410120934001220F1C
S1130B60331F309339012093380110921D0180E026
S1130B7015CE80912B0190E0FC01EE0FFF1FE35A8C
S1130B80FE4F3183208301968770992780932B0130
S1130B9080915D0190915E0120915F01309160012F
S1130BA0820F931F2091610130916201820F931F84
S1130BB02091630130916401820F931F209165019C
S1130BC030916601820F931F209167013091680173
S1130BD0820F931F2091690130916A01820F931F44
S1130BE020916B0130916C01820F931F969587952C
S1130BF096958795969587959C0136952795369574
S1130C00279536952795280F391F30933D0120935A
S1130C103C01220F331F309335012093340110928D
S1130C201B0180E018CD80912A0190E0FC01EE0FB9
S1130C30FF1FE35BFE4F3183208301968770992762
S1130C4080932A0180914D0190914E0120914F0192
S1130C5030915001820F931F209151013091520124
S1130C60820F931F2091530130915401820F931FDF
S1130C702091550130915601820F931F2091570105
S1130C8030915801820F931F2091590130915A01DC
S1130C90820F931F20915B0130915C01820F931F9F
S1130CA09695879596958795969587959C01369503
S1130CB027953695279536952795280F391F309314
S1130CC03B0120933A01220F331F309333012093C9
S1130CD0320110921A0180E06DCC80912C0190E0D9
S1130CE0FC01EE0FFF1FE359FE4F31832083019671
S1130CF08770992780932C0180916D0190916E01EA
S1130D0020916F0130917001820F931F2091710126
S1130D1030917201820F931F2091730130917401FD
S1130D20820F931F2091750130917601820F931FDA
S1130D302091770130917801820F931F20917901DE
S1130D4030917A01820F931F20917B0130917C01B5
S1130D50820F931F96958795969587959695879577
S1130D609C01369527953695279536952795280F16
S1130D70391F30933F0120933E01220F331F3093DC
S1130D8037012093360110921C0180E0B6CC2091EB
S1130D90010181E090E0022E01C0880F0A94EAF775
S1130DA090911F01982B90931F01822FF8CD2091D1
S1130DB0000181E090E0022E01C0880F0A94EAF756
S1130DC090911E01982B90931E01822FA6CD209105
S1130DD0030181E090E0022E01C0880F0A94EAF733
S1130DE090912101982B90932101822F53CD209132
S1130DF0020181E090E0022E01C0880F0A94EAF714
S1130E0090912001982B90932001822F00CD81E0B6
S1130E1022CC81E0C3CC81E0CDCB81E06ECC2091AB
S1130E201C0140E4249F9001112480911B0140E2A5
S1130E30849FC0011124282B236880911A0130E17A
S1130E40839FC0011124822B0E94C60B8091210133
S1130E500E94C60B1092210187E08093030120CDEC
S1130E6020911D0140E8249F9001112480911B01D1
S1130E7040E2849FC0011124282B226480911A012E
S1130E8030E1839FC0011124822B0E94C60B809104
S1130E9020010E94C60B1092200187E0809302017A
S1130EA0BCCC8091300190E0FC01EE0FFF1FE355B4
S1130EB0FE4F3183208301968770992780933001F8
S1130EC08091AD019091AE012091AF013091B001BC
S1130ED0820F931F2091B1013091B201820F931FB1
S1130EE02091B3013091B401820F931F2091B50179
S1130EF03091B601820F931F2091B7013091B80150
S1130F00820F931F2091B9013091BA01820F931F70
S1130F102091BB013091BC01820F931F9695879558
S1130F209695879596958795840F951F96958795A1
S1130F300A97909337018093360182E0DECB80914B
S1130F402E0190E0FC01EE0FFF1FE357FE4F3183AB
S1130F50208301968770992780932E0180918D01BB
S1130F6090918E0120918F0130919001820F931FF7
S1130F702091910130919201820F931F209193014E
S1130F8030919401820F931F209195013091960125
S1130F90820F931F2091970130919801820F931F24
S1130FA02091990130919A01820F931F20919B0106
S1130FB030919C01820F931F9695879596958795FE
S1130FC096958795840F951F969587950A97909384
S1130FD033018093320182E0EDCA8091310190E0C7
S1130FE0FC01EE0FFF1FE354FE4F31832083019673
S1130FF087709927809331018091BF019091C0013E
S11310002091BD013091BE01820F931F2091C10137
S11310103091C201820F931F2091C3013091C4010A
S1131020820F931F2091C5013091C601820F931F37
S11310302091C7013091C801820F931F2091C901EB
S11310403091CA01820F931F2091CB013091CC01C2
S1131050820F931F96958795969587959695879574
S1131060840F951F969587950A97909339018093DD
S1131070380182E093CB80912F0190E0FC01EE0FC8
S1131080FF1FE356FE4F3183208301968770992713
S113109080932F0180919D0190919E0120919F0149
S11310A03091A001820F931F2091A1013091A201E0
S11310B0820F931F2091A3013091A401820F931FEB
S11310C02091A5013091A601820F931F2091A701C1
S11310D03091A801820F931F2091A9013091AA0198
S11310E0820F931F2091AB013091AC01820F931FAB
S11310F0969587959695879596958795840F951FD0
S1131100969587950A97909335018093340182E0F0
S1131110A2CA20911D0140E8249F900111248091CE
S11311201C0140E4849FC0011124282B216280917A
S11311301A0130E1839FC0011124822B0E94C60B47
S113114080911F010E94C60B10921F0187E08093BB
S113115001012BCC20911D0140E8249F9001112412
S113116080911C0140E4849FC0011124282B20613C
S113117080911B0130E2839FC0011124822B0E94C5
S1131180C60B80911E010E94C60B10921E0187E0BF
S113119080930001C8CB80912A0190E0FC01EE0FFE
S11311A0FF1FE35BFE4F31832083019687709927ED
S11311B080932A0180914D0190914E0120914F011D
S11311C030915001820F931F2091510130915201AF
S11311D0820F931F2091530130915401820F931F6A
S11311E02091550130915601820F931F2091570190
S11311F030915801820F931F2091590130915A0167
S1131200820F931F20915B0130915C01820F931F29
S11312109695879596958795969587959C0136958D
S113122027953695279536952795280F391F30939E
S11312303B0120933A0181E0BDC980912C0190E0EB
S1131240FC01EE0FFF1FE359FE4F3183208301960B
S11312508770992780932C0180916D0190916E0184
S113126020916F0130917001820F931F20917101C1
S113127030917201820F931F209173013091740198
S1131280820F931F2091750130917601820F931F75
S11312902091770130917801820F931F2091790179
S11312A030917A01820F931F20917B0130917C0150
S11312B0820F931F96958795969587959695879512
S11312C09C01369527953695279536952795280FB1
S11312D0391F30933F0120933E0181E00ECA809173
S11312E02B0190E0FC01EE0FFF1FE35AFE4F318308
S11312F0208301968770992780932B0180915D014B
S113130090915E0120915F0130916001820F931FE3
S11313102091610130916201820F931F209163013A
S113132030916401820F931F209165013091660111
S1131330820F931F2091670130916801820F931FE0
S11313402091690130916A01820F931F20916B01F2
S113135030916C01820F931F96958795969587958A
S1131360969587959C0136952795369527953695BC
S11313702795280F391F30933D0120933C0181E0CC
S11313806AC980912D0190E0FC01EE0FFF1FE35824
S1131390FE4F3183208301968770992780932D0116
S11313A080917F019091800120917D0130917E0197
S11313B0820F931F2091810130918201820F931F2C
S11313C02091830130918401820F931F2091850124
S11313D030918601820F931F2091870130918801FB
S11313E0820F931F2091890130918A01820F931FEC
S11313F020918B0130918C01820F931F96958795D4
S113140096958795969587959C013695279536955B
S1131410279536952795280F391F3093410120933E
S1131420400181E0BBC91092420110924301109225
S113143044011092450108958093460108951F9236
S11314400F920FB60F9211248F939F9380914701AF
S113145090914801019690934801809347019F9190
S11314608F910F900FBE0F901F90189529988EBDE5
S11314700DB407FEFDCF6EBD0DB407FEFDCF299A56
S113148008952A988EBD0DB407FEFDCF2EB51EBC5F
S11314900DB407FEFDCF8EB52A9A90E0922B0895E5
S11314A029988CE48EBD0DB407FEFDCF1EBC0DB48F
S11314B007FEFDCF299A299884E58EBD0DB407FE59
S11314C0FDCF1EBC0DB407FEFDCF299A29988CE5EB
S11314D08EBD0DB407FEFDCF1EBC0DB407FEFDCFBF
S11314E0299A29988CE48EBD0DB407FEFDCF8FEFA9
S11314F08EBD0DB407FEFDCF299A299884E58EBDD3
S11315000DB407FEFDCF8FEF8EBD0DB407FEFDCFEA
S1131510299A29988CE58EBD0DB407FEFDCF8FEF77
S11315208EBD0DB407FEFDCF299A2FEF81E19AE716
S1131530215080409040E1F700C0000029988CE4DD
S11315408EBD0DB407FEFDCF1EBC0DB407FEFDCF4E
S1131550299A299884E58EBD0DB407FEFDCF1EBCE3
S11315600DB407FEFDCF299A29988CE58EBD0DB4E4
S113157007FEFDCF1EBC0DB407FEFDCF299A0895CA
S113158080914A01813009F441C090F1823031F0F8
S1131590833051F581E080934A01089560E08CE442
S11315A00E94360A60E084E50E94360A60E08CE519
S11315B00E94360A9091040197FD3DC08091490133
S11315C0292F332727FD30954FEF490F90E002C0B4
S11315D0959587952A95E2F780FD2BC083E040938B
S11315E0040180934A01089580E080934A0108959C
S11315F09FB7F894809151029FBF81113EC081E052
S11316000E941C0A80E080934A01089560910501BC
S11316108CE40E94360A60914C0184E50E94360AEB
S113162060914B018CE50E94360A82E080934A0166
S1131630089581E0D4CF9FB7F894809151029FBF61
S1131640882391F2E0914F02F09150022191F0939E
S11316505002E0934F02ED54F240B1F18FB7F89489
S1131660909151029150909351028FBF2093490160
S1131670822F46E027E030E0A9CFE0914F02F091BD
S113168050022191F0935002E0934F02ED54F24046
S1131690A1F09FB7F8948091510281508093510238
S11316A09FBF2093490187E08093040180E00E945A
S11316B01C0A0E94130A81E06ECF8DEC91E0909396
S11316C0500280934F02E5CF8DEC91E0909350024D
S11316D080934F02C3CF2FB7F8948DEC91E0909391
S11316E04E0280934D029093500280934F021092C9
S11316F051022FBF08952FB7F894909151022FBF34
S1131700903809F40895E0914D02F0914E028083DF
S1131710E0914D02F0914E02CF01019690934E025A
S113172080934D028D54924049F09FB7F894809174
S113173051028F5F809351029FBF08958DEC91E019
S113174092838183F2CF8093050160934C0140938F
S11317504B010895E091D402F091D5028191F09368
S1131760D502E093D402E25DF24049F02FB7F89439
S11317709091D60291509093D6022FBF089522E5FE
S113178032E03093D5022093D402F0CFF8942FB7EF
S1131790F89490915B032FBF911105C09091C10003
S11317A090629093C1002FB7F89490915B032FBF80
S11317B0903811F478940895E0915703F091580308
S11317C08083E0915703F0915803CF0101969093E1
S11317D05803809357038755934049F09FB7F89473
S11317E080915B038F5F80935B039FBFE3CF87EDA3
S11317F092E092838183F2CF8FB7F8949091D602CE
S11318008FBF81E0911101C080E008951092C5005E
S113181081E28093C40082E08093C00088E98093D1
S1131820C10086E08093C2002FB7F89482E592E06D
S11318309093D3028093D2029093D5028093D402E2
S11318401092D6022FBF2FB7F89487ED92E09093B1
S113185058038093570390935A038093590310922B
S11318605B032FBF08951F920F920FB60F9211249E
S11318702F938F939F93EF93FF938091C600E091F2
S1131880D202F091D3028083E091D202F091D3028C
S1131890CF0101969093D3028093D202825D92404D
S11318A091F09FB7F8948091D6028F5F8093D6020F
S11318B09FBFFF91EF919F918F912F910F900FBE3A
S11318C00F901F90189582E592E092838183E9CF6F
S11318D01F920F920FB60F9211242F938F939F9301
S11318E0EF93FF939FB7F89480915B039FBF81119F
S11318F00FC08091C1008F7D8093C100FF91EF9153
S11319009F918F912F910F900FBE0F901F9018955C
S1131910E0915903F0915A032191F0935A03E09313
S11319205903E755F34059F09FB7F89480915B034E
S1131930815080935B039FBF2093C600DFCF87ED68
S113194092E090935A0380935903EECFF894FFCF1B
S1091950070707070770FA
S9030000FC
